:020000040000fa
:080000000002040000000000f2
:020000040000fa
:04000800640300008d
:020000040000fa
:04000c006403000089
:020000040000fa
:040010006403000085
:020000040000fa
:040014006403000081
:020000040000fa
:04001800640300007d
:020000040000fa
:04001c006403000079
:020000040000fa
:040020006403000075
:020000040000fa
:040024006403000071
:020000040000fa
:04002800640300006d
:020000040000fa
:04002c006403000069
:020000040000fa
:040030006403000065
:020000040000fa
:040034006403000061
:020000040000fa
:04003800640300005d
:020000040000fa
:04003c006403000059
:020000040000fa
:040040006403000055
:020000040000fa
:040044006403000051
:020000040000fa
:04004800c8020000ea
:020000040000fa
:04004c006403000049
:020000040000fa
:040050006403000045
:020000040000fa
:040054006403000041
:020000040000fa
:04005800640300003d
:020000040000fa
:04005c006403000039
:020000040000fa
:040060006403000035
:020000040000fa
:040064006403000031
:020000040000fa
:04006800640300002d
:020000040000fa
:04006c006403000029
:020000040000fa
:040070006403000025
:020000040000fa
:040074006403000021
:020000040000fa
:04007800640300001d
:020000040000fa
:04007c006403000019
:020000040000fa
:040080006403000015
:020000040000fa
:040084006403000011
:020000040000fa
:04008800640300000d
:020000040000fa
:04008c006403000009
:020000040000fa
:040090006403000005
:020000040000fa
:040094006403000001
:020000040000fa
:0400980064030000fd
:020000040000fa
:04009c0064030000f9
:020000040000fa
:0400a00064030000f5
:020000040000fa
:0400a40064030000f1
:020000040000fa
:0400a80064030000ed
:020000040000fa
:0400ac0064030000e9
:020000040000fa
:0400b00064030000e5
:020000040000fa
:0400b40064030000e1
:020000040000fa
:0400b80064030000dd
:020000040000fa
:0400bc0064030000d9
:020000040000fa
:0400c00064030000d5
:020000040000fa
:0400c40064030000d1
:020000040000fa
:0400c80064030000cd
:020000040000fa
:0400cc0064030000c9
:020000040000fa
:0400d00064030000c5
:020000040000fa
:0400d40064030000c1
:020000040000fa
:0400d80064030000bd
:020000040000fa
:0400dc0064030000b9
:020000040000fa
:0400e00064030000b5
:020000040000fa
:0400e40064030000b1
:020000040000fa
:0400e80064030000ad
:020000040000fa
:0400ec0064030000a9
:020000040000fa
:0400f00064030000a5
:020000040000fa
:0400f40064030000a1
:020000040000fa
:0400f800640300009d
:020000040000fa
:0400fc006403000099
:020000040000fa
:040100006403000094
:020000040000fa
:040104006403000090
:020000040000fa
:04010800640300008c
:020000040000fa
:04010c006403000088
:020000040000fa
:040110006403000084
:020000040000fa
:040114006403000080
:020000040000fa
:04011800640300007c
:020000040000fa
:04011c006403000078
:020000040000fa
:040120006403000074
:020000040000fa
:040124006403000070
:020000040000fa
:04012800640300006c
:020000040000fa
:04012c006403000068
:020000040000fa
:040130006403000064
:020000040000fa
:040134006403000060
:020000040000fa
:04020800640300008b
:020000040000fa
:04020c006403000087
:020000040000fa
:040210006403000083
:020000040000fa
:04021400640300007f
:020000040000fa
:04021800640300007b
:020000040000fa
:04021c006403000077
:020000040000fa
:040220006403000073
:020000040000fa
:04022400640300006f
:020000040000fa
:04022800640300006b
:020000040000fa
:04022c006403000067
:020000040000fa
:040230006403000063
:020000040000fa
:04023400640300005f
:020000040000fa
:04023800640300005b
:020000040000fa
:04023c006403000057
:020000040000fa
:040240006403000053
:020000040000fa
:04024400640300004f
:020000040000fa
:04024800c8020000e8
:020000040000fa
:04024c006403000047
:020000040000fa
:040250006403000043
:020000040000fa
:04025400640300003f
:020000040000fa
:04025800640300003b
:020000040000fa
:04025c006403000037
:020000040000fa
:040260006403000033
:020000040000fa
:04026400640300002f
:020000040000fa
:04026800640300002b
:020000040000fa
:04026c006403000027
:020000040000fa
:040270006403000023
:020000040000fa
:04027400640300001f
:020000040000fa
:04027800640300001b
:020000040000fa
:04027c006403000017
:020000040000fa
:040280006403000013
:020000040000fa
:04028400640300000f
:020000040000fa
:04028800640300000b
:020000040000fa
:04028c006403000007
:020000040000fa
:040290006403000003
:020000040000fa
:0402940064030000ff
:020000040000fa
:0402980064030000fb
:020000040000fa
:04029c0064030000f7
:020000040000fa
:0402a00064030000f3
:020000040000fa
:0402a40064030000ef
:020000040000fa
:0402a80064030000eb
:020000040000fa
:0402ac0064030000e7
:020000040000fa
:0402b00064030000e3
:020000040000fa
:0402b40064030000df
:020000040000fa
:0402b80064030000db
:020000040000fa
:0402bc0064030000d7
:020000040000fa
:0402c00064030000d3
:020000040000fa
:0402c40064030000cf
:020000040000fa
:0402c80064030000cb
:020000040000fa
:0402cc0064030000c7
:020000040000fa
:0402d00064030000c3
:020000040000fa
:0402d40064030000bf
:020000040000fa
:0402d80064030000bb
:020000040000fa
:0402dc0064030000b7
:020000040000fa
:0402e00064030000b3
:020000040000fa
:0402e40064030000af
:020000040000fa
:0402e80064030000ab
:020000040000fa
:0402ec0064030000a7
:020000040000fa
:0402f00064030000a3
:020000040000fa
:0402f400640300009f
:020000040000fa
:0402f800640300009b
:020000040000fa
:0402fc006403000097
:020000040000fa
:040300006403000092
:020000040000fa
:04030400640300008e
:020000040000fa
:04030800640300008a
:020000040000fa
:04030c006403000086
:020000040000fa
:040310006403000082
:020000040000fa
:04031400640300007e
:020000040000fa
:04031800640300007a
:020000040000fa
:04031c006403000076
:020000040000fa
:040320006403000072
:020000040000fa
:04032400640300006e
:020000040000fa
:04032800640300006a
:020000040000fa
:04032c006403000066
:020000040000fa
:040330006403000062
:020000040000fa
:04033400640300005e
:020000040000fa
:100400000f8720000e7f22000e01880000000000f0
:10041000000020000000e000020032000001200087
:100420002002880014000700b30007000000e0006d
:1004300003003a0040722100010020000200370052
:100440000000200001002000810f70000100320038
:1004500014000700000020000000e000020032004d
:100460000000020000000000c604020000000000be
:100470000040da000000fe004440a900c000200057
:100480000000e0000300320000002000a00188000e
:100490004440a800000006008a1f78008b1f7800e7
:1004a0000000060091018800800478000000eb0045
:1004b0001a003700e284440032a0b4009905ba0063
:1004c000e284440032a0b4009906ba00e2844400f9
:1004d00032a0b4000006eb00476fde00fd07b2005b
:1004e000636ce10003003a00ebff07000000eb0043
:1004f0000a003700606ce10004003a00005deb0088
:100500008b05e900fdff3e00040037006168e10053
:10051000010032000086eb000b00070019c7ba008b
:100520001905ba000e04e00003003a000a00e000da
:10053000e0ff3a0000000600fe07b2009e018800be
:100540008a047800f5ff3700395dba008b05e900b1
:100550000c003200295dba008b05e900080032006a
:100560000c00e00003003a00e284440032a0b40032
:10057000f5ff370019ddba008b05e900faff3a00f4
:100580008904e800e184440032a0b40000000600c1
:100590003600f800809fbe00829fbe00849fbe0090
:1005a000869fbe003400f80000002000a0018800f3
:1005b0000200fa000040eb00004f780036003700e0
:1005c0001e80fb006a00b900800078006080200077
:1005d00000804000100078000000e0002d00320094
:1005e0001e81fb006a10b90000007800e6004000a0
:1005f00060802000008040001000be0061004000cc
:10060000e08048006a11b90082017800c2802000b1
:10061000028141000089be001e80fb006a00b90013
:1006200000007800e600400060802000008040006c
:100630001001be001e80fb006a00b90000007800b7
:100640008080e80060802000008040001000be0034
:10065000800f5100818f59000e003a001e80fb0070
:100660006a00b900800078006080200000804000af
:1006700010007800000001001e80fb006a00b90035
:1006800080007800c0802000008140006000b80039
:100690000089be001e4fe8001e407800e94f500060
:1006a000c7ff36008500a9000080fa003400f90079
:1006b0004f03be004f02be004f01be004f00be0000
:1006c0003600f900004006000040da000000fe009d
:1006d0000600fa00000f7800110798002207980022
:1006e0001e009000ae0090008a0707002e009000c8
:1006f0000080fa000000060000000500889fbe0090
:100700008a9fbe00800478000200e0005b00320097
:1007100001407800814c780082814400f1f99f000b
:10072000e20f51005500360091449800a144980012
:10073000e1f99f00d1f99f00e60f51004f0036000c
:10074000b1449800c1f99f00e80f51004b003600fa
:100750000905ea00630565000a8444000a055100a2
:10076000c1ff2f00010565000080fb008000eb0049
:10077000121020001310200044000700008cbe005f
:100780000a01440060b99f0071b99f00e80f55004d
:100790003a00360020049800310498004004980084
:1007a0005104980020b99f0031b99f0040b99f00c3
:1007b00051b99f00f80f55003000360060049800d2
:1007c00071049800000c9800110c9800200c9800ff
:1007d000310c9800400c9800510c980020b19f00fb
:1007e00031b19f0040b19f0051b19f0060b19f00a7
:1007f00071b19f0000b99f0011b99f0064016400ae
:100800007801410002044400020555006011b8005f
:100810000203be000002be000403be006022b80056
:1008200000007200818072000201730083817300f6
:1008300010003700009cbe000294be0040049800e7
:10084000510498006204980073049800000c98000a
:10085000110c9800220c9800330c9800400c980062
:10086000510c9800620c9800730c98000a02b100b9
:100870000802b000ff0f5500eeff3e0009007800af
:100880004f05be004f04be0000000600020ab9007a
:10089000001bb9000200b800810042008100430043
:0408a000000006004e
:020000040000fa
:1008a400000300000306000001040000060200002b
:0808b40005000000030500002f
:020000040000fa
:1008bc000800fa00a086200090407800c086200036
:1008cc001040780080c06800f0862000104078004e
:1008dc0000c068006047980050002000000f7800ae
:1008ec00070037001e00e900a1862000e1407800d7
:1008fc00a08620001e004000014878001e0fe90071
:10090c001e0078000000e000f6ff3c00a0862000ee
:10091c00ee409000014878000040eb002047980022
:10092c000000eb00200798000f003700a186200084
:10093c002e00900000804000104078008080fb006a
:10094c002e009000650010000008dd00804078004b
:10095c002e40900000c07000204798002e009000a0
:10096c000000e800200798002e009000e50f5000d2
:10097c00eeff34002e4090000080fa0000000600cc
:10098c002201fa008e0078002102b0007f000900dd
:10099c008018eb0010c0b3003067980020c0b30083
:1009ac004067980030c0b3005067980040c0b30057
:1009bc006067980050c0b3007067980060c0b300c7
:1009cc00006f980070c0b300106f980080c0b30027
:1009dc00206f980090c0b300306f980000c1b30036
:1009ec00406f980010c1b300506f980020c1b30045
:1009fc00606f980030c1b300706f980040c1b300b5
:100a0c000077980050c1b3001077980060c1b30014
:100a1c002077980070c1b3003077980080c1b30084
:100a2c004077980090c1b3005077980000c2b30093
:100a3c006077980010c2b3007077980020c2b300a2
:100a4c00007f980030c2b300107f980040c2b30002
:100a5c00207f980050c2b300307f980060c2b30072
:100a6c00407f980070c2b300507f980080c2b300e2
:100a7c00607f980090c2b300707f980000c3b300f1
:100a8c0000c7980010c3b30010c7980020c3b30070
:100a9c0020c7980030c3b30030c7980040c3b300e0
:100aac0040c7980050c3b30050c7980060c3b30050
:100abc0060c7980070c3b30070c7980080c3b300c0
:100acc0000cf980090c3b30010cf980000c4b300bf
:100adc0020cf980010c4b30030cf980020c4b300ce
:100aec0040cf980030c4b30050cf980040c4b3003e
:100afc0060cf980050c4b30070cf980060c4b300ae
:100b0c0000d7980070c4b30010d7980080c4b3000d
:100b1c0020d7980090c4b30030d7980000c5b3001c
:100b2c0040d7980010c5b30050d7980020c5b3002b
:100b3c0060d7980030c5b30070d7980040c5b3009b
:100b4c0000df980050c5b30010df980060c5b300fb
:100b5c0020df980070c5b30030df980080c5b3006b
:100b6c0040df980090c5b30050df980000c6b3007a
:100b7c0060df980010c6b30070df980020c6b30089
:100b8c0000e7980030c6b30010e7980040c6b300e9
:100b9c0020e7980050c6b30030e7980060c6b30059
:100bac0040e7980070c6b30050e7980080c6b300c9
:100bbc0060e7980090c6b30070e7980000c7b300d8
:100bcc0000ef980010c7b30010ef980020c7b300d7
:100bdc0020ef980030c7b30030ef980040c7b30047
:100bec0040ef980050c7b30050ef980060c7b300b7
:100bfc0060ef980070c7b30070ef980080c7b30027
:100c0c0000f7980090c7b30010f7980000c8b30025
:100c1c0020f7980010c8b30030f7980020c8b30034
:100c2c0040f7980030c8b30050f7980040c8b300a4
:100c3c0060f7980050c8b30070f7980060c8b30014
:100c4c0000ff980070c8b30010ff980080c8b30074
:100c5c0020ff980090c8b30030ff980000c9b30083
:100c6c0040ff980010c9b30050ff980020c9b30092
:100c7c0060ff980030c9b30070ff980040c9b30002
:100c8c000047990050c9b3001047990060c9b300e0
:100c9c002047990070c9b3003047990080c9b30050
:100cac004047990090c9b3005047990000cab3005f
:100cbc006047990010cab3007047990020cab3006e
:100ccc00004f990030cab300104f990040cab300ce
:100cdc00204f990050cab300304f990060cab3003e
:100cec00404f990070cab300504f990080cab300ae
:100cfc00604f990090cab300704f990000cbb300bd
:100d0c000057990010cbb3001057990020cbb300bb
:100d1c002057990030cbb3003057990040cbb3002b
:100d2c004057990050cbb3005057990060cbb3009b
:100d3c006057990070cbb3007057990080cbb3000b
:100d4c00005f990090cbb300105f990000ccb3000a
:100d5c00205f990010ccb300305f990020ccb30019
:100d6c00405f990030ccb300505f990040ccb30089
:100d7c00605f990050ccb300705f990060ccb300f9
:100d8c000067990070ccb3001067990080ccb30059
:100d9c002067990090ccb3003067990000cdb30068
:100dac004067990010cdb3005067990020cdb30077
:100dbc006067990030cdb3007067990040cdb300e7
:100dcc00006f990050cdb300106f990060cdb30047
:100ddc00206f990070cdb300306f990080cdb300b7
:100dec00406f990090cdb300506f990000ceb300c6
:100dfc00606f990010ceb300706f990020ceb300d5
:100e0c000077990030ceb3001077990040ceb30034
:100e1c002077990050ceb3003077990060ceb300a4
:100e2c004077990070ceb3005077990080ceb30014
:100e3c006077990090ceb3007077990000cfb30023
:100e4c00007f990010cfb300107f990020cfb30022
:100e5c00207f990030cfb300307f990040cfb30092
:100e6c00407f990050cfb300507f990060cfb30002
:100e7c00607f990070cfb300707f990080cfb30072
:100e8c0000c7990090cfb30010c799000080eb0009
:100e9c0060198800c022ef000000eb0010079800da
:100eac000040eb00004f78000000eb00200798009a
:100ebc0010002000600f98000000eb003007980035
:100ecc000000eb004007980010002000500798002d
:100edc0010002000600798000000eb0070079800dd
:100eec0080002000000f9800010037000000000077
:100efc0000362e0061012000df07070010002000e3
:100f0c007f0707000004e000230032001e00900061
:100f1c000000e800100798001e00900020168800c2
:100f2c001e009000e50f500003003a0000c0eb00db
:100f3c00004f7800140037001e009000e70f50009f
:100f4c0003003a0070c0b300004f78000e00370069
:100f5c001e009000e10f500003003a0000c0eb00af
:100f6c00004f7800080037001e009000e60f50007c
:100f7c0003003a0070c0b300004f78000200370045
:100f8c000040eb00004f7800007e2600510320004b
:100f9c00b90707002600370040002000580707005b
:100fac000004e000220032001e0090000000e90066
:100fbc00100798001e009000201688001e0090005c
:100fcc00e50f500003003a0000c0eb00004f780022
:100fdc00140037001e009000e70f500003003a0089
:100fec0070c0b300004f78000e0037001e00900058
:100ffc00e10f500003003a0000c0eb00004f7800f6
:10100c00080037001e009000e60f500003003a0065
:10101c0070c0b300004f7800020037000040eb00b6
:10102c00004f7800007e2600510320009207070035
:10103c001e009000ea0f500002003a000000eb0086
:10104c00100798001e009000e10f400002003a00cb
:10105c0090002000100798001e0090000000e00097
:10106c0006003a001e4fe8001e80fb002016880088
:10107c0000362e00610120007f0707001e00900043
:10108c00e10f50000b003a001e4078000004e00015
:10109c0002003a0000c0eb00004f78001e4fe90040
:1010ac001e80fb002016880000362e0061012000f7
:1010bc00710707001e009000e20f50002a003a0052
:1010cc001e407800e14f400002003a000040eb0067
:1010dc00004f78001e4fe8001e80fb004700de002a
:1010ec002057980060002000200f98001500370052
:1010fc002e50900000404000205798009e80fb002e
:10110c002e0890000088de0000407800e14060006e
:10111c001e81fb002e0890000000e8000090de000d
:10112c00004078006140600080c068002e50900044
:10113c0000c07000205798002e0890000000e900b5
:10114c00200f98002e0890000000e000e8ff3d0002
:10115c002e5090000080fb002016880000362e00d8
:10116c0061012000440707001e009000e30f5000af
:10117c002a003a001e4078000004e00002003a0009
:10118c0000c0eb00004f78001e4fe9001e80fb00f2
:10119c004700de006057980060002000400f980068
:1011ac00150037006e5090000040400060579800ca
:1011bc009e80fb004e0890000088de000040780006
:1011cc00e14060001e81fb004e0890000000e8002a
:1011dc000090de00004078006140600080c0680034
:1011ec006e50900000c07000605798004e08900040
:1011fc000000e900400f98004e0890000000e0004d
:10120c00e8ff3d006e5090000080fb002016880027
:10121c0000362e0061012000170707001e00900009
:10122c00e40f50001d003a001e407800e14f4000d2
:10123c0003003a000040eb00004f7800010037003b
:10124c001e4fe8001e80fb004400de00605f98002b
:10125c001e4178006f406100705f98006e589000de
:10126c000080fb0000004700206090000080fb0025
:10127c00c400dd007e5890000080fb000000470099
:10128c00206090000080fb00010070002016880098
:10129c0000362e0061012000f70607001e009000aa
:1012ac00e50f50001d003a001e4078000004e000dd
:1012bc0003003a0090c9b300004f780001003700da
:1012cc001e4fe9001e80fb004400de000067980002
:1012dc009e4078006fc06000106798000e60900010
:1012ec000080fb0000004700206090000080fb00a5
:1012fc00c400dd001e6090000080fb000000470071
:10130c00206090000080fb00010070002016880017
:10131c0000362e0061012000d70607001e00900049
:10132c00e60f500028003a002e009000e10f50000c
:10133c0004003a001e80fb000000d100004f780032
:10134c00030037001e40780000404000004f78003a
:10135c0000c7b3009e40780080cf500002003a00d6
:10136c0010002000200798001e417800674069009b
:10137c000080fb000000e9004f00de000040780018
:10138c0011c0b3006e0990000200e00001003c00a7
:10139c008040eb00014060000004e00002003200dd
:1013ac000000eb00200798001e80fb002016880030
:1013bc00009f240021002000af0607002e009000a3
:1013cc000000e800200798001e009000e70f500076
:1013dc0029003a003e009000e10f500004003a0052
:1013ec001e80fb000000d100004f78000300370086
:1013fc001e40780000404000004f78001e80fb002b
:10140c002016880000362e00610120009a06070085
:10141c0000ceb3009e40780080cf500002003a000e
:10142c0010002000300798004e0090000000a20031
:10143c0000f0a7000000ea000000e9004f00de0009
:10144c00804078001e417800674069000080fb00f6
:10145c000000e9004f00de000040780000c0600092
:10146c000004e000020032000000eb00300798009e
:10147c0010002000400798001e009000e80f50005c
:10148c0033003a000000eb00500f98001a003700b0
:10149c007e009000804078006e0090000040780044
:1014ac0000cf40001e80fb002016880080a923007e
:1014bc0001002000700607000e0890008000e90073
:1014cc005e089000808f500005003a00fe009000ee
:1014dc006e009000008040007007980003003700f9
:1014ec006e00900000004000600798005e089000bd
:1014fc000000e800500f9800de0890000e089000e5
:10150c00808f5000e2ff3500de00900061079800ec
:10151c000e0890000000e900000f9800009f2400c6
:10152c002100200054060700fe009000f00f200060
:10153c00808f500006003a001000200050079800e1
:10154c0010002000600798000000eb007007980066
:10155c001e009000e90f500064fe3a00d4fc070016
:10156c000080fb002016880000362e006101200050
:10157c00410607005efe37001200fa00000f9800cb
:10158c00e3004700224528000b000900b258780000
:10159c0040c3b3000000fb004400dd008040780035
:1015ac0040c3b3006f40600000c070008040780002
:1015bc000e0890007140980030c3b3000000fb008f
:1015cc004400dd008040780090c3b3006f406000a1
:1015dc0000c07000804078000e08900061409800b8
:1015ec0010c3b3000000fb004400dd008040780015
:1015fc0070c3b3006f40600000c070008040780082
:10160c000e0890005140980000c2b3000000fb008f
:10161c004400dd008040780010c3b3006f406000d0
:10162c0000c07000804078000e0890003140980097
:10163c0020c3b3000000fb004400dd0080407800b4
:10164c0040c3b3006f40600000c070008040780061
:10165c000e08900011409800a0c4b3000000fb00dd
:10166c00a1042000810f50001e003200a1042000b4
:10167c00810f50000a003c0041042000810f5000f3
:10168c006100320061042000810f500032003200f2
:10169c0011042000810f5000420032005d00370021
:1016ac00e1042000810f500054003200e1042000be
:1016bc00810f500004003c00d1042000810f500029
:1016cc002800320053003700f1042000810f500035
:1016dc004700320031052000810f500041003200dc
:1016ec004c00370050c7b3000000fb00110620006f
:1016fc00810f50000400320051072000810f500070
:10170c00040032004300370010c0b30010479800ab
:10171c0010003700e0c6b3000000fb00c10620003b
:10172c00810f500007003200e1062000810f5000ad
:10173c00010032000600370060c0b300104798006b
:10174c000300370070c0b300104798000000000081
:10175c00000000002f00370020c0b3001047980095
:10176c002c003700e0c6b3000000fb00210720006e
:10177c00810f50000400320091072000810f5000af
:10178c00040032002300370030c0b300104798002b
:10179c000300370050c0b300104798000000000051
:1017ac001c00370050c7b3000000fb0001072000ed
:1017bc00810f50000400320051072000810f5000af
:1017cc00040032001300370040c0b30010479800eb
:1017dc000300370080c0b3001047980000000000e1
:1017ec000c00370090c0b300104798000900370078
:1017fc0000c1b300104798000600370010c1b300b9
:10180c00104798000300370020c1b3001047980020
:10181c00000000000e0890009e40900021409800af
:10182c0060c0b300004f78000e089000104090008c
:10183c000080fb004400de00004078006a00b90024
:10184c0000007800804078000e0890001040900056
:10185c006f40600000c04000204798002e40900070
:10186c000080fb004200de00804078002e4090009b
:10187c0000c040001e4f40002e40900063406000ae
:10188c000004e00004003a001e409000e24f5000bb
:10189c0001003e001e4fe9001e4090000080fb003e
:1018ac000000e90000004700304090001e4f40004f
:1018bc000e089000304090000080fb004400de00d9
:1018cc00004078006a00b900000078008040780081
:1018dc000e089000304090006f40600000c0400047
:1018ec001e4f40009e80fb0070002000000178001d
:1018fc00110009008280d8008000fd00004f7800a4
:10190c000e0890009e407800414098000e08900010
:10191c00104078000004a2000004e0002300320014
:10192c000e08900010409000570107008e089000a0
:10193c00904098000e089000204090005201070043
:10194c008e089000a04098000e0890003040900047
:10195c004d0107008e089000b04098000e089000d2
:10196c0040409000480107008e089000c04098004d
:10197c000e08900050409000430107008e08900024
:10198c00d04098000e089000604090003e01070087
:10199c008e089000e04098000e0890007040900077
:1019ac00390107008e089000f04098000080fa0082
:1019bc00000006000200fa00881f7800000f780073
:1019cc0023002000600420007205200024742000f5
:1019dc00004a7800024a7800034a7800510520003a
:1019ec00313b8800a10a2000313b880027a6a800c3
:1019fc002706a8002726a8001e00780010407800b3
:101a0c000004e000200032001e007800104090001e
:101a1c000080fb00203188001e00780020409000e0
:101a2c000080fb00c800dd001e00780030409000f4
:101a3c000080fb0001007000203188001e0078003f
:101a4c00404090000080fb00c800dd001e007800c4
:101a5c00504090000080fb00010070002031880095
:101a6c001e007800604090000080fb00c800dd0084
:101a7c001e007800704090000080fb000100700098
:101a8c0020318800260037001e007800104090009e
:101a9c00e80007000080fb00203188001e00780061
:101aac0020409000e30007000080fb004804dd00ac
:101abc001e00780030409000de0007000080fb0024
:101acc0008007000203188001e0078004040900013
:101adc00d80007000080fb004804dd001e007800e1
:101aec0050409000d30007000080fb0008007000fd
:101afc00203188001e00780060409000cd00070067
:101b0c000080fb004804dd001e007800704090004f
:101b1c00c80007000080fb0008007000203188001e
:101b2c0000002800303188004f0478000080fa0053
:101b3c00000006000e00fa00600798002706a800b7
:101b4c002726a800303180004c00de006140600088
:101b5c000080fb0000f0a7000000ea000000ea0093
:101b6c004f00de00004f78002131800011079800f3
:101b7c001e009000804078006e009000114098008c
:101b8c0021318000110798001e0090004800de00f3
:101b9c00804078006e009000214098001e0090005c
:101bac00804078006e009000314098002131800018
:101bbc00110798001e0090004800de00804078005d
:101bcc006e009000414098001e009000804078000c
:101bdc006e00900051409800213180001107980050
:101bec001e0090004800de00804078006e009000df
:101bfc00614098001e009000804078006e009000bc
:101c0c00714098001e4078000004e0005f00320034
:101c1c006e00900070409000304f98006e00900065
:101c2c0060409000204f98006e0090005040900053
:101c3c00104f98006e009000304090007047980054
:101c4c006e00900020409000604798006e0090005d
:101c5c0010409000504798006e009000404090005b
:101c6c00004f98002706a8002726a80020318000e6
:101c7c00804078006e009000114098002131800067
:101c8c00110798001e0090004800de00804078008c
:101c9c006e009000214098001e009000804078005b
:101cac006e0090003140980021318000110798009f
:101cbc001e0090004800de00804078006e0090000e
:101ccc00414098001e009000804078006e0090000b
:101cdc005140980021318000110798001e0090009f
:101cec004800de00804078006e0090006140980053
:101cfc001e009000804078006e00900071409800ab
:101d0c006e009000f04090003e48900080cf500054
:101d1c0015003a006e009000e04090002e489000b4
:101d2c0080cf500012003a006e009000d04090001e
:101d3c001e48900080cf50000f003a006e009000bb
:101d4c00b04090007e40900080cf50000c003a00d4
:101d5c006e009000a04090006e40900080cf50002c
:101d6c0009003a00090037000000000007003700a6
:101d7c0000000000050037000000000003003700e1
:101d8c000000000001003700000000006e00900011
:101d9c00104078000004a2000004e0002300320090
:101dac006e0090001040900037000700ee0090008d
:101dbc00904098006e009000204090003200070088
:101dcc00ee009000a04098006e0090003040900013
:101ddc002d000700ee009000b04098006e009000bf
:101dec004040900028000700ee009000c040980092
:101dfc006e0090005040900023000700ee00900011
:101e0c00d04098006e009000604090001e000700cb
:101e1c00ee009000e04098006e0090007040900042
:101e2c0019000700ee009000f04098000080fa00c6
:101e3c00000006000200fa00004f78009e80fb00b4
:101e4c00d0cc2c000008b8004308de00004078001d
:101e5c000080fb004400dd00804178001e81fb0007
:101e6c00d0cc2c000010b8004308de006a00b9008a
:101e7c0000007800000051000040780000c07100a4
:101e8c000080fa00000006000200fa00004f780003
:101e9c001e80fb004400de00004078006a00b900a0
:101eac0000007800804078001e4178006f4061008f
:101ebc0000c040000080fa00000006000200fa009a
:101ecc00000f78001e007800bafe07000080fa00b0
:101edc00000006000200fa00000f78001e007800d7
:101eec0014ff07000080fa00000006000200fa0050
:101efc00000f78001e007800e40f5000180032002c
:101f0c00e40f500007003e00e20f500010003200ba
:101f1c00e20f500010003e00e10f50000a003200aa
:101f2c0019003700e60f500011003200e60f500088
:101f3c000d003900e70f50000f003200e80f500081
:101f4c000f00320010003700c402a8000e0037004a
:101f5c00c422a8000c003700c442a8000a003700b5
:101f6c00c462a80008003700c482a800060037002d
:101f7c00c4a2a80004003700c4c2a80002003700a5
:101f8c00c4e2a800000000000080fa000000060077
:101f9c000200fa00000f78001e007800e40f5000d9
:101fac0018003200e40f500007003e00e20f500012
:101fbc0010003200e20f500010003e00e10f500004
:101fcc000a00320019003700e60f500011003200f1
:101fdc00e60f50000d003900e70f50000f003200e3
:101fec00e80f50000f00320010003700c402a900a7
:101ffc000e003700c422a9000c003700c442a9000f
:10200c000a003700c462a90008003700c482a90086
:10201c0006003700c4a2a90004003700c4c2a900fe
:10202c0002003700c4e2a900000000000080fa00a2
:10203c00000006000200fa00000f78001e00780075
:10204c00e40f500038003200e40f500007003e004f
:10205c00e20f50001a003200e20f500025003e0043
:10206c00e10f50000a00320070003700e60f5000fc
:10207c0047003200e60f500038003900e70f5000df
:10208c0050003200e80f50005b0032006700370050
:10209c002016800000407800614060000004a2001f
:1020ac00614060000080fb00610060002116800030
:1020bc000100a10001007000201688005b003700b1
:1020cc00201680000000d100614060000004a200d6
:1020dc00614060000080fb00610060000000400077
:1020ec00211680000110a10001007000201688004c
:1020fc004e003700201680004200de006140600078
:10210c000004a200614060000080fb0061006000e0
:10211c004200dd00211680000120a10001007000aa
:10212c002016880041003700201680004300de0096
:10213c00614060000004a200614060000080fb0070
:10214c00610060004300dd00211680000130a10019
:10215c000100700020168800340037002016800023
:10216c004400de00614060000004a2006140600099
:10217c000080fb00610060004400dd00211680003f
:10218c000140a100010070002016880027003700d4
:10219c00201680004500de00614060000004a200b3
:1021ac00614060000080fb00610060004500dd00c4
:1021bc00211680000150a10001007000201688003b
:1021cc001a003700201680004600de0061406000d7
:1021dc000004a200614060000080fb006100600010
:1021ec004600dd00211680000160a1000100700096
:1021fc00201688000d003700201680004700de00f6
:10220c00614060000004a200614060000080fb009f
:10221c00610060004700dd00211680000170a10004
:10222c000100700020168800000000000080fa00f9
:10223c00000006000200fa00000f78001e00780073
:10224c00e40f50002a003200e40f500007003e005b
:10225c00e20f500016003200e20f50001c003e004e
:10226c00e10f50000a0032004c003700e60f50001e
:10227c002f003200e60f500025003900e70f500008
:10228c0034003200e80f50003b00320043003700ae
:10229c00201680006100600000f0a7000000ea003a
:1022ac000000ea004f00de00004078003c003700e0
:1022bc00201680006200600000f0a7000000ea0019
:1022cc000000ea004f00de000040780034003700c8
:1022dc00201680006400600000f0a7000000ea00f7
:1022ec000000ea004f00de00004078002c003700b0
:1022fc00201680006800600000f0a7000000ea00d3
:10230c000000ea004f00de00004078002400370097
:10231c00201680007000600000f0a7000000ea00aa
:10232c000000ea004f00de00004078001c0037007f
:10233c0021168000000220000080600000f0a70041
:10234c000000ea000000ea004f00de0000407800c8
:10235c00130037002116800000042000008060006c
:10236c0000f0a7000000ea000000ea004f00de00c9
:10237c00004078000a003700211680000008200079
:10238c000080600000f0a7000000ea000000ea00f6
:10239c004f00de0000407800010037000040eb00e9
:1023ac000080fa00000006000200fa00000f78001e
:1023bc001e007800e40f500018003200e40f5000ab
:1023cc0007003e00e20f500010003200e20f5000f8
:1023dc0010003e00e10f50000a00320019003700d7
:1023ec00e60f500011003200e60f50000d003900ce
:1023fc00e70f50000f003200e80f50000f003200c2
:10240c0010003700c002a9000e003700c022a9003e
:10241c000c003700c042a9000a003700c062a900b6
:10242c0008003700c082a90006003700c0a2a9002e
:10243c0004003700c0c2a90002003700c0e2a900a6
:10244c00000000000080fa00000006000000fa0006
:10245c00f03f200010308800303828000030880011
:10246c00100020006030880000882300110020003c
:10247c001801070000882300110020001501070037
:10248c000426ef0030032000403088005003200069
:10249c00010020000f0107000426ef00200320009c
:1024ac004030880050032000010020000901070083
:1024bc000426ef00800320004030880050032000e9
:1024cc0001002000030107000426ef00c0002000db
:1024dc00403088005003200001002000fd00070060
:1024ec000426ef00600020004030880050032000dc
:1024fc0001002000f70007006d00070010c0b300ba
:10250c000080fa00000006000400fa00000f7800ba
:10251c00110798000a0037001e0078001040780060
:10252c000000fb000000e000110032001e007800eb
:10253c00104078001e0fe80010000700000000009b
:10254c001e00900000f0a7000000ea000000ea0066
:10255c004f00de00004078009e0090008100e900f2
:10256c00110798000004e000ebff3a00010037006f
:10257c00000000000080fa00000006000200fa00d3
:10258c00004f78001e00fb00ea0f50000e003200d6
:10259c00ea0f500003003c00e80f50001500320019
:1025ac001b003700ec0f500017003200ed0f5000ed
:1025bc0017003a0002c8bf00ea4f50003600320044
:1025cc004c0007003500370002c8bf00ed4f50002b
:1025dc00010032004700070000c8bf000004e00003
:1025ec0002003a00b00007002c003700a3000700df
:1025fc002a0037005300070000c2b300dfff0700ba
:10260c005000070025003700290007002300370081
:10261c0001c8bf00f04f500014003a000168ef00f1
:10262c0000c8bf000004e00009003a000426ef00d7
:10263c00000c2000403088005003200001002000d6
:10264c00a400070010c0b30000e8b7000700370073
:10265c000426ef00000820004030880050032000c2
:10266c00010020009b0007000068ef001000200014
:10267c00203088001e00fb004030880050032000f2
:10268c00010020009300070001c8bf000040e800d3
:10269c0001e8b70001003700000000001e4178007f
:1026ac0021802000824878000080fa00000006009b
:1026bc000000fa000426ef001000200040308800d3
:1026cc00a088200001002000820007000426ef00f3
:1026dc002000200040308800a0882000010020004d
:1026ec007c0007000068ef000168ef000080fa0032
:1026fc00000006000000fa0000c8bf000004e00063
:10270c0007003a000426ef00000820004030880043
:10271c0050032000010020006e0007000600370067
:10272c000426ef00000c20004030880050032000ed
:10273c0001002000670007000168ef000080fa002c
:10274c00000006000200fa0001c8bf000004e0000f
:10275c001c003a0000c8bf000004e00009003a0069
:10276c000426ef00000c20004030880050032000ad
:10277c00010020005700070010c0b30000e8b700ac
:10278c00070037000426ef000008200040308800c6
:10279c0050032000010020004e0007000068ef00ed
:1027ac000040eb00004f78000200370010000700db
:1027bc001e4fe8001e407800ee4f5000fbff360025
:1027cc000900370001c8bf000040e90001e8b7006c
:1027dc000426ef0000012000403088005003200048
:1027ec00010020003b0007000080fa0000000600fa
:1027fc000000fa000426ef00400120004030880061
:10280c0050032000010020003200070001c8bf0067
:10281c000040e80001e8b70001c8bf00f04f5000cd
:10282c0014003a000168ef0000c8bf000004e0008b
:10283c0009003a000426ef00000c2000403088000c
:10284c0050032000010020002200070010c0b3003c
:10285c0000e8b700070037000426ef00000820004e
:10286c0040308800500320000100200019000700b0
:10287c000068ef000080fa00000006000200fa0079
:10288c000040eb00004f780002003700adff07005e
:10289c001e4fe8001e407800ef4f5000fbff360043
:1028ac000080fa00000006000200fa000040eb0075
:1028bc00004f780002003700cdff07001e4fe800e4
:1028cc001e407800ef4f5000fbff36000080fa00ee
:1028dc00000006000400fa00008fbe00050037005f
:1028ec00000000000081eb008081eb001e0f410016
:1028fc005e9749001e00be00e00f5000e08f5800ac
:10290c00f7ff3a000080fa00000006000200fa000f
:10291c00004f78001e4078000004e00007003200f1
:10292c000426ef00f0002000403088005003200007
:10293c0001002000e7ff0700060037000426ef0027
:10294c00c00020004030880050032000010020000f
:10295c00e0ff07000080fa00000006000400fa0007
:10296c00100798001e009000e40f50000400320085
:10297c00e50f50000400320000c0eb0010003700df
:10298c000000000001003700000000001e00900055
:10299c000d000700d1cc2c000100b8004308de006c
:1029ac00004f780040c6b3009e40780080cf5000a6
:1029bc000200360040c6b300004f78001e4078007d
:1029cc000080fa00000006000400fa0010079800ce
:1029dc001e009000e40f500004003200e50f500080
:1029ec00040032000080eb001f00370000000000e4
:1029fc0001003700000000009e0090004119880083
:102a0c002023a8000000eb00000f78000200370024
:102a1c00000000001e0fe800703e20009e007800b1
:102a2c00808f5000faff36002023a9000000eb0035
:102a3c00000f780002003700000000001e0fe800b5
:102a4c00703e20009e007800808f5000faff360008
:102a5c000000000000198000610060000000e00030
:102a6c00fcff3200001880000080fa000000060015
:102a7c000200fa00000f78001e007800e40f5000ee
:102a8c0005003200e50f500006003a002ca3a90007
:102a9c0010c0b300040037002c83a90010c0b30091
:102aac00010037000040eb000080fa000000060037
:102abc000200fa00000f78001e0078000000e00011
:102acc001a003a0011198000f0ff2100008060000c
:102adc001019880000c0eb0024e3b7000119800036
:102aec00f0f12f000080600000198800211980008f
:102afc00f00f2e000080600000c0a000201988009c
:102b0c0001198000f0cf2f000080600000198800b0
:102b1c001119800030fc2f00008060001019880013
:102b2c0021e3a80010c0b300010037000040eb0007
:102b3c000080fa00000006000400fa00100798005c
:102b4c000040eb00004f7800110037001e80fb00a6
:102b5c006a00b9008000780060802000008040008e
:102b6c00900078001e009000808f500007003a0003
:102b7c001e80fb006a00b900800078006080200095
:102b8c00008040008000eb00010878001e4fe80038
:102b9c001e407800e94f5000ecff36000080fa0030
:102bac00000006000800fa001007980022079800a1
:102bbc003307980004c8bf000004a2000004e00022
:102bcc00020032000040eb00280037000040eb0010
:102bdc00004f7800210037001e80fb006a00b9000e
:102bec008000780060802000008040001000780099
:102bfc000000e00018003a001e80fb006a00b900db
:102c0c008000780060802000008040009e009000d2
:102c1c00010878001e80fb006a00b9008000780073
:102c2c0080802000008040002e019000be019000aa
:102c3c000288be001e80fb006a00b900800078008c
:102c4c00c0802000008140006000b8000089be00f8
:102c5c0010c0b300050037001e4fe8001e4078007e
:102c6c00e94f5000dcff36000040eb000080fa001a
:102c7c00000006000200fa00000f78001e00780029
:102c8c000000e00003003200e10f5000150032009c
:102c9c0018003700420620008000eb006080200006
:102cac0093f607004105800080ff2f000080600034
:102cbc000000a000400588008500a9000a21ef0053
:102ccc0000e823007008880000002a0090088800a3
:102cdc009500a80010c0b30004e8b70010c0b30002
:102cec00050037009500a9000468ef0010c0b30080
:102cfc00010037000040eb000080fa0000000600e5
:102d0c000200fa00000f78001e007800e20f50005d
:102d1c0013003200e20f500003003e00e10f5000a0
:102d2c000600320029003700e30f50001500320076
:102d3c00e40f50001c00320024003700a116800064
:102d4c00000420000080600000f0a7000000ea00f2
:102d5c000000e9004f00de00004078001c00370046
:102d6c00a1168000000820000080600000f0a70081
:102d7c000000ea000000e9004f00de00004078008f
:102d8c00130037001116800000082000008060003e
:102d9c0000f0a7000000ea000000e9004f00de0090
:102dac00004078000a003700a116800000002200c5
:102dbc000080600000f0a7000000ea000000e900bd
:102dcc004f00de0000407800010037000040eb00af
:102ddc000080fa00000006000200fa00000f7800e4
:102dec001e007800e20f50000c003200e20f500081
:102dfc0003003e00e10f5000060032000d003700ca
:102e0c00e30f500007003200e40f500007003200bf
:102e1c0008003700d2c2a80006003700d2e2a80092
:102e2c0004003700c0e2a80002003700d3a2a800bb
:0c2e3c00000000000080fa00000006000a
:020000040000fa
:102e48000008000004000000000000000608000060
:102e580064000000000000000408000002000000f8
:102e6800000000006a0800000600000002000000e0
:0c2e78000101010000000100000000004a
:020000040000fa
:102e8400f03fb1000180b10006003500ee030900f7
:102e940000000000403fb1000180b100fbff3d0095
:102ea4001000b000203fb00002003500008009008f
:082eb400000000000000060010
:020000040000fa
:020000040002f8
:04aff8009dfa0000be
:020000040000fa
:020000040002f8
:04affc007f3f000093
:00000001FF
