:020000040000fa
:080000000002040000000000f2
:020000040000fa
:04000800c80200002a
:020000040000fa
:04000c00c802000026
:020000040000fa
:04001000c802000022
:020000040000fa
:04001400c80200001e
:020000040000fa
:04001800c80200001a
:020000040000fa
:04001c00c802000016
:020000040000fa
:04002000c802000012
:020000040000fa
:04002400c80200000e
:020000040000fa
:04002800c80200000a
:020000040000fa
:04002c00c802000006
:020000040000fa
:04003000c802000002
:020000040000fa
:04003400c8020000fe
:020000040000fa
:04003800c8020000fa
:020000040000fa
:04003c00c8020000f6
:020000040000fa
:04004000c8020000f2
:020000040000fa
:04004400c8020000ee
:020000040000fa
:04004800c8020000ea
:020000040000fa
:04004c00c8020000e6
:020000040000fa
:04005000c8020000e2
:020000040000fa
:04005400c8020000de
:020000040000fa
:04005800c8020000da
:020000040000fa
:04005c00c8020000d6
:020000040000fa
:04006000c8020000d2
:020000040000fa
:04006400c8020000ce
:020000040000fa
:04006800c8020000ca
:020000040000fa
:04006c00c8020000c6
:020000040000fa
:04007000c8020000c2
:020000040000fa
:04007400c8020000be
:020000040000fa
:04007800c8020000ba
:020000040000fa
:04007c00c8020000b6
:020000040000fa
:04008000c8020000b2
:020000040000fa
:04008400c8020000ae
:020000040000fa
:04008800c8020000aa
:020000040000fa
:04008c00c8020000a6
:020000040000fa
:04009000c8020000a2
:020000040000fa
:04009400c80200009e
:020000040000fa
:04009800c80200009a
:020000040000fa
:04009c00c802000096
:020000040000fa
:0400a000c802000092
:020000040000fa
:0400a400c80200008e
:020000040000fa
:0400a800c80200008a
:020000040000fa
:0400ac00c802000086
:020000040000fa
:0400b000c802000082
:020000040000fa
:0400b400c80200007e
:020000040000fa
:0400b800c80200007a
:020000040000fa
:0400bc00c802000076
:020000040000fa
:0400c000c802000072
:020000040000fa
:0400c400c80200006e
:020000040000fa
:0400c800c80200006a
:020000040000fa
:0400cc00c802000066
:020000040000fa
:0400d000c802000062
:020000040000fa
:0400d400c80200005e
:020000040000fa
:0400d800c80200005a
:020000040000fa
:0400dc00c802000056
:020000040000fa
:0400e000c802000052
:020000040000fa
:0400e400c80200004e
:020000040000fa
:0400e800c80200004a
:020000040000fa
:0400ec00c802000046
:020000040000fa
:0400f000c802000042
:020000040000fa
:0400f400c80200003e
:020000040000fa
:0400f800c80200003a
:020000040000fa
:0400fc00c802000036
:020000040000fa
:04010000c802000031
:020000040000fa
:04010400c80200002d
:020000040000fa
:04010800c802000029
:020000040000fa
:04010c00c802000025
:020000040000fa
:04011000c802000021
:020000040000fa
:04011400c80200001d
:020000040000fa
:04011800c802000019
:020000040000fa
:04011c00c802000015
:020000040000fa
:04012000c802000011
:020000040000fa
:04012400c80200000d
:020000040000fa
:04012800c802000009
:020000040000fa
:04012c00c802000005
:020000040000fa
:04013000c802000001
:020000040000fa
:04013400c8020000fd
:020000040000fa
:04020800c802000028
:020000040000fa
:04020c00c802000024
:020000040000fa
:04021000c802000020
:020000040000fa
:04021400c80200001c
:020000040000fa
:04021800c802000018
:020000040000fa
:04021c00c802000014
:020000040000fa
:04022000c802000010
:020000040000fa
:04022400c80200000c
:020000040000fa
:04022800c802000008
:020000040000fa
:04022c00c802000004
:020000040000fa
:04023000c802000000
:020000040000fa
:04023400c8020000fc
:020000040000fa
:04023800c8020000f8
:020000040000fa
:04023c00c8020000f4
:020000040000fa
:04024000c8020000f0
:020000040000fa
:04024400c8020000ec
:020000040000fa
:04024800c8020000e8
:020000040000fa
:04024c00c8020000e4
:020000040000fa
:04025000c8020000e0
:020000040000fa
:04025400c8020000dc
:020000040000fa
:04025800c8020000d8
:020000040000fa
:04025c00c8020000d4
:020000040000fa
:04026000c8020000d0
:020000040000fa
:04026400c8020000cc
:020000040000fa
:04026800c8020000c8
:020000040000fa
:04026c00c8020000c4
:020000040000fa
:04027000c8020000c0
:020000040000fa
:04027400c8020000bc
:020000040000fa
:04027800c8020000b8
:020000040000fa
:04027c00c8020000b4
:020000040000fa
:04028000c8020000b0
:020000040000fa
:04028400c8020000ac
:020000040000fa
:04028800c8020000a8
:020000040000fa
:04028c00c8020000a4
:020000040000fa
:04029000c8020000a0
:020000040000fa
:04029400c80200009c
:020000040000fa
:04029800c802000098
:020000040000fa
:04029c00c802000094
:020000040000fa
:0402a000c802000090
:020000040000fa
:0402a400c80200008c
:020000040000fa
:0402a800c802000088
:020000040000fa
:0402ac00c802000084
:020000040000fa
:0402b000c802000080
:020000040000fa
:0402b400c80200007c
:020000040000fa
:0402b800c802000078
:020000040000fa
:0402bc00c802000074
:020000040000fa
:0402c000c802000070
:020000040000fa
:0402c400c80200006c
:020000040000fa
:0402c800c802000068
:020000040000fa
:0402cc00c802000064
:020000040000fa
:0402d000c802000060
:020000040000fa
:0402d400c80200005c
:020000040000fa
:0402d800c802000058
:020000040000fa
:0402dc00c802000054
:020000040000fa
:0402e000c802000050
:020000040000fa
:0402e400c80200004c
:020000040000fa
:0402e800c802000048
:020000040000fa
:0402ec00c802000044
:020000040000fa
:0402f000c802000040
:020000040000fa
:0402f400c80200003c
:020000040000fa
:0402f800c802000038
:020000040000fa
:0402fc00c802000034
:020000040000fa
:04030000c80200002f
:020000040000fa
:04030400c80200002b
:020000040000fa
:04030800c802000027
:020000040000fa
:04030c00c802000023
:020000040000fa
:04031000c80200001f
:020000040000fa
:04031400c80200001b
:020000040000fa
:04031800c802000017
:020000040000fa
:04031c00c802000013
:020000040000fa
:04032000c80200000f
:020000040000fa
:04032400c80200000b
:020000040000fa
:04032800c802000007
:020000040000fa
:04032c00c802000003
:020000040000fa
:04033000c8020000ff
:020000040000fa
:04033400c8020000fb
:020000040000fa
:100400002f8020000e7f22000e01880000000000d7
:10041000000020000000e000020032000001200087
:1004200020028800140007005b0007000000e000c5
:1004300003003a00405e2000010020000200370067
:100440000000200001002000810f70000100320038
:1004500014000700000020000000e000020032004d
:10046000000002000000000048030200000000003d
:100470000040da000000fe004440a9000000200017
:100480000000e0000300320000002000a00188000e
:100490004440a800000006008a1f78008b1f7800e7
:1004a0000000060091018800800478000000eb0045
:1004b0001a003700e284440032a0b4009905ba0063
:1004c000e284440032a0b4009906ba00e2844400f9
:1004d00032a0b4000006eb00476fde00fd07b2005b
:1004e000636ce10003003a00ebff07000000eb0043
:1004f0000a003700606ce10004003a00005deb0088
:100500008b05e900fdff3e00040037006168e10053
:10051000010032000086eb000b00070019c7ba008b
:100520001905ba000e04e00003003a000a00e000da
:10053000e0ff3a0000000600fe07b2009e018800be
:100540008a047800f5ff3700395dba008b05e900b1
:100550000c003200295dba008b05e900080032006a
:100560000c00e00003003a00e284440032a0b40032
:10057000f5ff370019ddba008b05e900faff3a00f4
:100580008904e800e184440032a0b40000000600c1
:0c0590000040da000000fe000000050042
:020000040000fa
:10059c000200fa00000f7800a01680004600de0072
:1005ac006140600000e8b700a01680004700de0044
:1005bc006140600001e8b70000362e0061012000a8
:1005cc007001070000c8bf00e14f500006003a0060
:1005dc001e0fe8001e007800e90f500002003400e6
:1005ec0010002000000f780001c8bf00e14f500040
:1005fc0006003a001e0fe9001e0078000000e00023
:10060c0002003c0090002000000f78001e007800d3
:10061c000080fa00000006000200fa00004f78008b
:10062c001e80fb000000d100004078001e406800d6
:10063c000080fb000080fa00000006000200fa00b7
:10064c00000f78001e017800e10061001e007800a8
:10065c000080d10061006000808068001e0078007e
:10066c004480de0061006000808068001e0078001d
:10067c004580de0061006000008068000080fa00a8
:10068c00000006002000fa00c022ef000080eb0002
:10069c00901688000000eb00000f7800100020007e
:1006ac00100798009e00780021168800090037007a
:1006bc001e0fe8009e0078002116880000362e00e0
:1006cc00610120002f0107001e009000b0ff070001
:1006dc00100798001e009000e10f5000f4ff32004c
:1006ec000000eb00000f7800090037001e0fe90036
:1006fc009e0078002116880000362e006101200033
:10070c00200107001e009000a1ff070010079800b1
:10071c001e009000e20f5000f4ff32000000eb00ce
:10072c00000f7800190037000000eb00200798003c
:10073c00100037002e00900000407800b6ff070034
:10074c002016880000362e00610120000d010700e4
:10075c001e0090008eff0700100798001e009000ee
:10076c00e30f500008003a002e0090000000e80053
:10077c0020079800ae009000f00f2000808f5000f2
:10078c00ecff340001003700000000001e00900058
:10079c00e30f5000e4ff32000000eb00000f780084
:1007ac0018003700f00f20003007980010003700b9
:1007bc003e0090000040780097ff0700201688004c
:1007cc0000362e0061012000ee0007001e00900094
:1007dc006fff0700100798001e009000e40f5000f8
:1007ec0007003a003e0090000000e9003007980036
:1007fc003e0090000000e000edff3d0001003700de
:10080c00000000001e009000e40f5000e5ff3200d5
:10081c000000eb00000f7800220037000000eb0016
:10082c00400798001c0037000000eb0050079800b0
:10083c00110037004e009000c400dd005e009000f7
:10084c00008040002016880000362e006101200038
:10085c00cc0007001e0090004dff07001007980009
:10086c001e009000e50f500007003a005e0090005b
:10087c000000e800500798005e009000e90f50005f
:10088c00ecff340001003700000000004e00900027
:10089c000000e800400798004e009000e90f50005f
:1008ac00e1ff34001e009000e50f5000dbff32002a
:1008bc000000eb00000f78002200370090002000b1
:1008cc00600798001c00370090002000700798000b
:1008dc00110037006e009000c400dd007e00900017
:1008ec00008040002016880000362e006101200098
:1008fc00a40007001e00900025ff070010079800b9
:10090c001e009000e60f500007003a007e00900099
:10091c000000e900700798007e0090000000e000e5
:10092c00ecff3d0001003700000000006e0090005d
:10093c000000e900600798006e0090000000e000e5
:10094c00e1ff3d001e009000e60f5000dbff32007f
:10095c000000eb00000f7800210037000000eb00d6
:10096c00000f980010002000100f9800190037009d
:10097c00710020000e0890000008dd002016880091
:10098c008e0890001e08900000804000000f980018
:10099c000e0890000000e00003003a001000200058
:1009ac00100f9800050037000e089000e40f50005f
:1009bc00020034000080eb00100f980000362e006f
:1009cc00610120006f0007001e009000f0fe070080
:1009dc00100798001e009000e70f5000e4ff320053
:1009ec001e009000e70f5000dcff32000000eb000f
:1009fc00000f7800400037000000eb00200f98003b
:100a0c003a0037000000eb00200f98007000200027
:100a1c00300f9800200037009e0078003e089000b0
:100a2c000008de0061006000500f98003e08900046
:100a3c000000e9009e0078000008de006100600004
:100a4c00600f98005e0890000000e0000f003a0074
:100a5c006e089000e10f50000c003a0011002000cd
:100a6c003e0890000008dd001e0f40003e0890007c
:100a7c000000e900110020000008dd001e0f10002e
:100a8c0010002000200f9800060037003e08900050
:100a9c000000e900300f98003e089000e10f500074
:100aac00ddff3c002e0890000000e00001003a0041
:100abc001e0fe800f00f20009e007800808f500081
:100acc00020036000000eb00000f78009e0078005a
:100adc002116880000362e00610120002900070035
:100aec001e009000aafe0700100798001e00900040
:100afc00e80f5000c3ff32001e009000e80f5000ba
:100b0c00bdff32000000eb00000f7800170037002b
:100b1c0010002000400f9800110037004e08900084
:100b2c00c6fe0700700f98004e0890008080d10020
:100b3c007e0890004500dd0001007000400f980019
:100b4c0000362e00610120000e0007004e089000b8
:100b5c00201688001e0090008dfe070010079800dc
:100b6c001e009000e90f5000ecff32001e009000b8
:100b7c00e90f5000e6ff32000000eb00000f780098
:040b8c00c8fe370068
:020000040000fa
:100b9000f03fb1000180b10006003500ee0309000e
:100ba00000000000403fb1000180b100fbff3d00ac
:100bb0001000b000203fb0000200350000800900a6
:080bc000000000000000060027
:020000040000fa
:100bc8000008000002000000000000000000000013
:020000040000fa
:020000040002f8
:04aff800be7b00001c
:020000040000fa
:020000040002f8
:04affc007f3f000093
:00000001FF
